:020000040800F2
:10000000781A0020A1330008F5010008F701000864
:1000100003020008070200080B02000800000000AD
:100020000000000000000000000000000F020008B7
:100030001102000800000000130200081502000869
:10004000BB330008BB330008BB330008BB330008D8
:10005000BB330008BB330008BB330008BB330008C8
:10006000BB330008BB330008BB330008BB330008B8
:10007000BB330008BB330008BB330008BB330008A8
:10008000BB330008BB330008BB330008BB33000898
:10009000BB330008BB330008BB330008BB33000888
:1000A000BB330008BB330008BB330008BB33000878
:1000B00021020008BB330008BB330008BB33000833
:1000C000BB330008BB330008BB330008BB33000858
:1000D000BB330008BB330008BB330008BB33000848
:1000E000BB330008BB330008BB33000800F002F844
:1000F00000F063F80AA090E8000C82448344AAF15F
:100100000107DA4501D100F058F8AFF2090EBAE85C
:100110000F0013F0010F18BFFB1A43F0010318473B
:1001200020430000404300000A444FF0000C10F848
:10013000013B13F0070408BF10F8014B1D1108BF65
:1001400010F8015B641E05D010F8016B641E01F805
:10015000016BF9D113F0080F1EBF10F8014BAD1C55
:100160000C1B09D16D1E58BF01F801CBFAD505E073
:1001700014F8016B01F8016B6D1EF9D59142D6D3CD
:10018000704700000023002400250026103A28BFF5
:1001900078C1FBD8520728BF30C148BF0B607047F9
:1001A0001FB503F00BFD04000020002103F052FDF9
:1001B000401C60601FBD10B510BD03F0C7FC1146A8
:1001C000FFF7EEFF00F008F803F0EEFC03B4FFF7D2
:1001D000F2FF03BC03F036FD00BF00F031F800F081
:1001E00097F800F098F900F0C7FF02E0142000F043
:1001F00063F8FBE7704703E04FF400500E490861D5
:10020000FAE700BFFEE700BFFEE700BFFEE770476A
:100210007047704709480088401C084908807047AB
:1002200010B50121880702F0E6FD18B10121880709
:1002300002F0F2FD10BD000000100140000000209F
:1002400010B56FF0040001F0BFFE2D4800682D4985
:10025000B0FBF1F02C4908700846007800EB400133
:10026000C1EBC0104FF6FF7101EAC00027490880BA
:1002700010BD0146244A12784A434FF0E0235A61E8
:1002800000229A611A46126942F001021A6100BF07
:100290004FF0E022106910F0010F02D010F4803FFF
:1002A000F6D04FF0E022126922F001024FF0E02375
:1002B0001A6100229A6170470146144A12884A4323
:1002C0004FF0E0235A6100229A611A46126942F007
:1002D00001021A6100BF4FF0E022106910F0010F17
:1002E00002D010F4803FF6D04FF0E022126922F0E5
:1002F00001024FF0E0231A6100229A61704700006A
:10030000A001002000127A0002000020040000205A
:1003100010B54FF4A06001F007FE10BDFE4909685A
:100320000021FD4A11601146096841F077311160E2
:10033000F94908310968C9B24FF47F4202EA002244
:100340001143F54A08321160704770B58024F248B5
:1003500000680020F04908600846006840F08830D6
:100360000860ED480C30006840F47F40EA490C31E9
:1003700008600020E94908604FF00100E849C1F831
:100380009001E849086015E00020E44908604FF05A
:100390000100E349C1F89001E2490860FFF769FFF5
:1003A000DD48001D006885B22C1204F08004012095
:1003B000FFF75FFF802CE7D00020DA49086070BDAE
:1003C00010B50446FFF7C1FF0120D44908604FF083
:1003D0000000D349C1F890014FF00100D1490860F5
:1003E0002046FFF79BFF0120FFF743FF0020CC4989
:1003F000C1F894010120FFF73CFF10BD10B5044681
:100400000020C6490860C649C1F890014FF00100BC
:10041000FFF72FFF0120C34908604FF01600FFF7D8
:1004200028FF2046FFF77AFF0A20FFF722FF00206F
:10043000BB49C1F894010120FFF71BFF10BD70B547
:1004400000251DE0002417E03420FFF7D7FF05F159
:100450008001C8B2FFF7D2FF04F18001C8B2FFF7F4
:10046000CDFF3020FFF7CAFF0020FFF7A9FF0020D3
:10047000FFF7A6FF601CC4B2102CE5DB681CC5B2F8
:10048000402DDFDB70BD10B53020FFF7B7FF012036
:10049000FFF712FF3020FFF7B1FF0120FFF70CFF3D
:1004A0000C20FFF7ABFF0120FFF706FF0120FFF74D
:1004B000A5FF0B20FFF700FF0620FFF79FFF01209D
:1004C000FFF7FAFE10BD9848806940F480709649A5
:1004D000886196480068C0B2944908600846006880
:1004E00093490843914908608F48806940F0200093
:1004F0008D4988618848006800208749086008465F
:10050000006840F03330086001208A49086084495F
:10051000C1F89C01704710B54FF49670FFF7CCFE00
:10052000FFF7D1FFFFF7AFFFFFF789FF10BD802076
:10053000794A12680022784B1A601A46126842F013
:1005400088321A60744A0C32126842F47F42724B4D
:100550000C331A6010E00022704B1A604FF0010259
:100560006F4BC3F89021C3F89421734A126891B27B
:100570004FEA212000F080008028ECD00022694B57
:100580001A60704770B5FFF7E0FE6348006800200E
:10059000614908600846006840F088300860664895
:1005A0000830006840F47F4063490831086001204A
:1005B0005A4908605A49C1F890015A490860FFF742
:1005C00058FE5D48006800F47F450120FFF751FEAA
:1005D00000205349C1F894012C0A204670BD2DE932
:1005E000F84F05460C46924605F07F0504F03F049F
:1005F0002846E91705EB11714FEA211B05F00F069C
:100600002046E11704EBD1614911009127461F2FC5
:1006100002DDA7F12000C7B23420FFF7EFFE36203D
:10062000FFF7ECFE07F18001C8B2FFF7E7FE0BF120
:1006300080010823009A03FB0211C8B2FFF7DEFE17
:10064000FFF7A0FFFFF79EFF8046FFF79BFF814665
:1006500007F18001C8B2FFF7D1FE0BF1800108233A
:10066000009A03FB0211C8B2FFF7C8FE082E1BDA7E
:10067000BAF1000F0CD0C6F107020121914041EA06
:100680000801C8B2FFF79CFE4846FFF799FE26E036
:10069000C6F107020121914028EA0100FFF790FE10
:1006A0004846FFF78DFE1AE0BAF1000F0CD0404625
:1006B000FFF786FEC6F10F020121914041EA0901D0
:1006C000C8B2FFF77DFE0AE04046FFF779FEC6F1AB
:1006D0000F020121914029EA0100FFF771FEFFF7A7
:1006E00034FE3020FFF78AFEBDE8F88F2DE9F84F81
:1006F00005460C4605F07F0504F03F042846E9173F
:1007000005EB11714FEA211B05F00F062046E1179A
:1007100004EBD161491111E0041401409801244215
:1007200000002442940124420010024000200140B5
:1007300000333333880124420814014000912746D6
:100740001F2F02DDA7F12000C7B23420FFF756FEAD
:100750003620FFF753FE07F18001C8B2FFF74EFEC7
:100760000BF180010823009A03FB0211C8B2FFF7C6
:1007700045FEFFF707FFFFF705FF8246FFF702FF81
:100780008046082E06DAC6F107010120884000EAFB
:100790000A0905E0C6F10F010120884000EA0809B6
:1007A000FFF7D3FD4846BDE8F88F10B53020FFF7BE
:1007B00025FE4020FFF722FE002400E0641C102CE0
:1007C000FCDB10BD2DE9F04106460C46154600271E
:1007D00004B90AE0012C01D1102706E0022C01D156
:1007E000082702E0032C00D1182707F180013144CB
:1007F000C8B2FFF703FE06E02878FFF7E1FD6D1CA5
:100800000120FFF736FD28780028F5DCBDE8F081EF
:1008100010B5044606E02078FFF7D2FD641C0120E5
:10082000FFF727FD20780028F5DC10BD2DE9F04109
:100830008046002700262BE0002524E000241EE04F
:100840003620FFF7DBFD05F18001C8B2FFF7D6FDCA
:1008500004F180013144C8B2FFF7D0FD3020FFF72A
:10086000CDFD39467F1CE24A505CFFF7A9FD3946B1
:100870007F1CDF4A505CFFF7A3FD601CC4B2082C4C
:10088000DEDB681CC5B2202DD8DB06F10800C6B23D
:10089000092ED1DBBDE8F0812DE9F04107460D4678
:1008A000164600241EE03620FFF7A8FD06F1800161
:1008B0002144C8B2FFF7A2FD802101EBC501C8B2F7
:1008C000FFF79CFD3020FFF799FDCA4A12F814008B
:1008D000FFF776FD6100491CC64A505CFFF770FDCA
:1008E000601CC4B20C2CDEDBBDE8F0812DE9F041C8
:1008F00007460E461546202D1ADA002415E036204C
:10090000FFF77CFD05F180012144C8B2FFF776FDB9
:1009100006F18001C8B2FFF771FD3020FFF76EFDD0
:10092000385DFFF74DFD601CC4B2102CE7DB1FE003
:10093000A5F12000C5B206F10800C6B2002415E0FA
:100940003620FFF75BFD05F180012144C8B2FFF7B7
:1009500055FD06F18001C8B2FFF750FD3020FFF7CA
:100960004DFD385DFFF72CFD601CC4B2102CE7DB99
:10097000BDE8F08170B5064600251DE0002417E0B3
:100980003620FFF73BFD05F18001C8B2FFF736FDC9
:1009900004F18001C8B2FFF731FD3020FFF72EFDD2
:1009A0003046FFF70DFD3046FFF70AFD601CC4B26C
:1009B000102CE5DB681CC5B2202DDFDB3420FFF7EF
:1009C0001DFD3620FFF71AFD70BD70B5002600250D
:1009D0001FE0F043C6B2002417E03620FFF70EFDFB
:1009E00005F18001C8B2FFF709FD04F18001C8B22A
:1009F000FFF704FD3020FFF701FD3046FFF7E0FC74
:100A00003046FFF7DDFC601CC4B2102CE5DB681C2F
:100A1000C5B2202DDDDB3420FFF7F0FC3620FFF7D8
:100A2000EDFC70BD70B5002625E000251EE0002419
:100A300018E03620FFF7E2FC05F18001C8B2FFF7AD
:100A4000DDFC04F180013144C8B2FFF7D7FC30204F
:100A5000FFF7D4FC0020FFF7B3FC0020FFF7B0FC49
:100A6000601CC4B2082CE4DB681CC5B2202DDEDBA0
:100A700006F10800C6B2092ED7DB3420FFF7BEFC12
:100A80003620FFF7BBFC70BD10B50120FFF7B6FCA8
:100A90000220FFF711FC10BD70472DE9F04104461C
:100AA000884615461E46AC4202DD2F4625463C468A
:100AB00006E0324641462046FFF791FD601CC4B275
:100AC000AC42F6DDBDE8F0812DE9F04180460C46F0
:100AD00015461E46AC4202DD2F4625463C4606E042
:100AE000324621464046FFF77AFD601CC4B2AC4254
:100AF000F6DDBDE8F0812DE9F84F05460C464FF0D4
:100B000001094FF0000A4FF0000B2BE0A8461BE054
:100B1000264610E03849009801EBC01010F80A0092
:100B200000EA09073A46F1B208F0FF00FFF757FD67
:100B30004FEA4909761CE01D8642EBDD0AF1010A05
:100B40004FF0010908F1010805F17F008045DFDD64
:100B50004FF0000A04F10800C4B20098401C009055
:100B60000BF1010BBBF1020FD0DD0024BDE8F88FC3
:100B70002DE9F84F05460C4691464FF0010A4FF01B
:100B8000000B0020009025E0A84617E026460CE068
:100B900019F80B0000EA0A073A46F1B208F0FF0024
:100BA000FFF71DFD4FEA4A0A761CE01D8642EFDD85
:100BB0000BF1020B4FF0010A08F1010805F17F006B
:100BC0008045E3DD4FF0010B04F10800C4B200984A
:100BD000401C009000980428D6DD0024BDE8F88F62
:100BE0000146002901DA484270470846FCE7000048
:100BF0004E00002006000020160C00202DE9F047D2
:100C00000746884615469946089EB8F1000F06D05B
:100C1000B8F1010F09D0B8F1020F2DD119E03A4611
:100C20004946284600F0A4FE27E0384602F09EFC24
:100C300000EB40004006040EA64203DD301BC0F36B
:100C4000470400E0002428193A46494600F090FE87
:100C500013E0384602F08AFC00EB40004006040E28
:100C6000A64202DD301BC4B200E0002428193A4637
:100C7000494600F07DFE00E000BF00BFBDE8F08700
:100C800038B50446802034230022022100902046FB
:100C9000FFF7B4FF38BD38B5044680203423002266
:100CA000114600902046FFF7A9FF38BD38B504462D
:100CB000802000231A46012100902046FFF79EFF66
:100CC00038BDF8B505460F4614461E460123662278
:100CD0003321182000F0E7FB01233F2233211820A5
:100CE00000F044FC01233F223321662000F03EFC4B
:100CF000287838B14A2034231B22394600902846F0
:100D0000FFF77CFF207838B14A2034231B2231467C
:100D100000902046FFF772FFF8BD2DE9F04106462E
:100D20000F4615461C4601232A463946304600F038
:100D3000BAFB01232A462146304600F0B4FB0123CA
:100D400022463946304600F011FC0123224639463E
:100D5000284600F00BFCBDE8F08100200DE0F949C9
:100D60004978C1EBC10101EB4102F6490E31114452
:100D7000095C01B903E0411CC8B21428EFDB00BFD5
:100D80007047F8B50446FFF7E8FF00EB4000400667
:100D9000050E0CB1012000E00020EA4E00907778AB
:100DA000B61C06EB470676780A36F3B2E54E77783E
:100DB000B61C16F817602E44F2B2E24E7778B61CD5
:100DC00006EB47067678761CF1B2DE4E7778B61CD5
:100DD00016F817602E44F0B200F01AFDD9494A788F
:100DE000891C01EB42014978491CC8B20A2101F073
:100DF00007F8F8BD10B5D448007808B9012000E024
:100E00000020D149087008460078FFF7BAFF10BDEE
:100E10002DE9F04104460F4615461E466221C94899
:100E200002F010FCC7488472C77205734673BDE8B0
:100E3000F08110B5C34841780078401E814207DA3E
:100E40000020FFF79EFFBF484078401CBD49487016
:100E500010BD10B5BB484078002807DD0020FFF723
:100E600090FFB8484078401EB649487010BD2DE943
:100E7000F04186B005460E4617464FF000080024A4
:100E800026E0B04841780A30405CA0421DDDAD4804
:100E90004078C0EBC00000EB4001AA480E30084487
:100EA000005D98B9B0450FDA4046411C01F0FF08DB
:100EB000295CA4484078C0EBC00000EB4002A14888
:100EC0000E301044015501E004E003E0601CC4B2A0
:100ED000142CD6DB00BF00219A484078C0EBC0003C
:100EE00000EB400297480E3010440155CFB9954BA6
:100EF0005B78C3EBC30303EB430C924B0E330CEB59
:100F000003020E3B93F801C09B1C03EB4C03597882
:100F10008C4B93F801C09B1C13F81C0000F028FDBB
:100F20001AE0884842780A30815C2A22684602F03A
:100F300081FBFFF712FF00220DF80020814A537851
:100F4000921C02EB430251787E4A5378921C12F8AD
:100F500013006A4600F00CFD7A494A78891C01EBBF
:100F6000420148780C2100F04BFF06B0BDE8F0814B
:100F700008B500200090FFF7F0FE00280CDD714955
:100F80004978C1EBC10101EB41026E490E315018A5
:100F90006A466EA102F024FA009808BD69484078BC
:100FA000C0EBC00000EB400166480E3008447047BB
:100FB000F0B587B004460D4600BF62494978C1EBE1
:100FC000C10101EB41025F490E31501802F0CEFA27
:100FD000C6B2A64273DB0020FFF7D3FE0DE000216E
:100FE00058484078C0EBC00000EB400255480E3036
:100FF0000244701EC0B2064611542000A4F1010143
:10100000CCB2ECD14F4842780A30815C202201A852
:1010100002F010FB00214B4842780A30805C01AAA4
:101020001154484A5378921C02EB43025178454AC6
:101030005378921C12F8130001AA00F099FCB5B97C
:10104000404B5B78C3EBC30303EB43073D4B0E33CD
:10105000FA180E3B5F789B1C03EB47035978394B1A
:101060005F789B1C13F8170000F082FC1AE03548EB
:1010700042780A30815C2A2201A802F0DBFAFFF7ED
:101080006CFE01A900220A542E4A5378921C02EBEE
:10109000430251782B4A5378921C12F8130001AA8C
:1010A00000F066FC27494A78891C01EB4201487828
:1010B0000C2100F0A5FE012007B0F0BDFFE70020E5
:1010C000FAE72DE9F84F80460E4614469946404609
:1010D00002F04CFA00F0FF0A0AF1010000EB4000B8
:1010E00006EB4000C5B27F2D00DD002509EB0500B1
:1010F000C7B27F2F00DD7F270120009004F10C0094
:10110000C3B2601EC1B23A46284600F03CFB4246DC
:101110002146304600F02CFCA81CC1B209480278D8
:10112000801C00F81210801E0178801C00EB41002A
:10113000447004480078401C024908700020487040
:10114000BDE8F88FB401002054000020256C640035
:1011500010B57B487B4902687B4802F026FA4021A3
:10116000002000F04DFE10BD10B5754876490268AC
:10117000744802F01AFA10BD10B500F091FD73A288
:101180000021084600F0F4FB4021002000F038FE6A
:1011900010BD38B5044614B1012C5ED12EE000F02C
:1011A0007FFD0023032211461046FFF731FE262360
:1011B000042212216AA0FFF784FF262313221221A2
:1011C0006AA0FFF77EFF2623222212216AA0FFF7E2
:1011D00078FF002361A201216AA0FFF772FD6CA0D5
:1011E000FFF759FD6CA0FFF74BFD0120302378225B
:1011F00001460090082000F0C6FA2FE000F050FDF4
:101200000023052211461046FFF702FE2623042282
:10121000122163A0FFF755FF26231322122163A09A
:10122000FFF74FFF26232222122163A0FFF749FF79
:1012300000234AA2012153A0FFF743FD54A0FFF76A
:101240002AFD55A0FFF71CFD01203023782201461E
:101250000090082000F097FA00E000BF00BF402196
:10126000002000F0CDFD38BD38B5044600F018FD73
:101270000120302378220E210090082000F083FA0C
:10128000092C37D2DFE804F005060C12181E242AB8
:10129000300030E04BA21A21112000F069FB2AE057
:1012A0004DA21A21084600F063FB24E04EA21A2149
:1012B000084600F05DFB1EE04FA21A21084600F030
:1012C00057FB18E050A21A21202000F051FB12E039
:1012D00050A21A21202000F04BFB0CE050A21A2152
:1012E000084600F045FB06E051A21A21084600F02E
:1012F0003FFB00E000BF00BF4021002000F080FD68
:1013000038BD10B53020FFF779F8FFF7BDFB80201E
:10131000FFF774F84AA0FFF77BFA9020FFF76EF80A
:101320004CA0FFF775FA8820FFF768F84EA0FFF78A
:101330006FFA9820FFF762F850A0FFF769FA10BD26
:101340008401002016100020160C0020312EB4A2BB
:10135000CEEFB9F1322EC0EED1C7B6AB000000001F
:10136000C6F0CABCC0D7B9DC00000000BDD8D6B9F1
:10137000C0D7B9DC00000000BFD7C4DAC0D7B9DCE1
:1013800000000000B0B4A84CC8B7C8CF00000000EF
:10139000B7B5BBD800000000BBD8C9BE0000000034
:1013A000C6F0CABCD1D3C6DA00000000BFD7BCE487
:1013B000D1D3C6DA00000000BFD7C4DAD1D3C6DA71
:1013C00000000000C3DCD4BFD6D8CAD4B4CECAFD56
:1013D000CEAA302100000000C3DCD4BFD2D1BCECC7
:1013E000B2E2B5BD2E2E2E00BFAACABCBCECB2E242
:1013F000C3DCD4BF2E2E2E00CEB4BCECB2E2B5BD01
:10140000C3DCD4BF2E2E2E00B3F6CFD6B4EDCEF370
:101410002E2E2E00C3B6BED9B3C9B9A62E2E2E00CD
:10142000B4D3BBFAC9E8B1B8B2E5C8EB2E2E2E0092
:10143000C9E8B1B8CEB4C1ACBDD32E2E2E00000089
:101440003120B4E6B0FC202020203220C8A1B0FC1E
:10145000000000003320D7B4CCAC20202020342062
:10146000B9DCC0ED000000003520B2E9BFB4202097
:1014700020203620C1D0B1ED00000000B7B5BBD8A8
:101480002020202020202020C8B7C8CF0000000046
:10149000024601B10AB9012070471368086810605C
:1014A0000B600020F8E72DE9FF410C4698469DF8B7
:1014B00000009DF80810884203DD02A96846FFF786
:1014C000E7FF3F2C03DC9DF800007F2801DDBDE82D
:1014D000FF819DF808007F2801DD7F2002902046D3
:1014E000E11704EB5171C1F3C706B8F1000F1ED12B
:1014F000E11704EB5171C910A4EBC1020121914025
:10150000CFB2F843C7B29DF800500AE0F74800EBAD
:10151000C610405D3840F54901EBC6114855681CBE
:10152000C5B29DF80800401C8542EFDB1CE0204658
:10153000E11704EB5171C910A4EBC10201219140E4
:10154000CFB29DF800500AE0E84800EBC610405DBD
:101550003843E64901EBC6114855681CC5B29DF8F1
:101560000800401C8542EFDB00BFB0E72DE9FF41DA
:10157000044698469DF804009DF80810884203DD53
:1015800002A901A8FFF784FF9DF804003F2801DCB1
:101590007F2C01DDBDE8FF819DF808003F2801DDBB
:1015A000072002909DF80400C11700EB5171CD1087
:1015B0009DF80800C11700EB5171CE10B54246D11D
:1015C000B8F1000F21D19DF80410CA1701EB527237
:1015D000D210A1EBC203FF229A409DF80800C31766
:1015E00000EB5373DB10A0EBC303C3F1070CFF2325
:1015F00003FA0CF31A40BD4B03EBC5131B5D934379
:10160000BA4A02EBC5121355BBE09DF80410CA1785
:1016100001EB5272D210A1EBC203FF229A409DF857
:101620000800C31700EB5373DB10A0EBC303C3F137
:10163000070CFF2343FA0CF31A40AC4B03EBC51322
:101640001B5D1A43A94B03EBC5131A5599E0B8F17A
:10165000000F4CD19DF80400C11700EB5171C91067
:10166000B0EBC10115D09DF80400C11700EB51711A
:10167000C910A0EBC102FF2191409C4A02EBC512A8
:10168000125D22EA0101994A02EBC5121155681C4C
:10169000C5B29DF80800C11700EB5171C910A0EB4D
:1016A000C101072917D09DF80800C11700EB51713F
:1016B000C910A0EBC101C1F10702FF2111418B4A02
:1016C00002EBC612125D22EA0101884A02EBC61241
:1016D0001155701EC6B22F4606E00020834901EB6B
:1016E000C7110855781CC7B2B742F6DD49E09DF82E
:1016F0000400C11700EB5171C910B0EBC10114D047
:101700009DF80400C11700EB5171C910A0EBC10294
:10171000FF219140754A02EBC512125D1143734AD5
:1017200002EBC5121155681CC5B29DF80800C1171F
:1017300000EB5171C910A0EBC101072916D09DF82B
:101740000800C11700EB5171C910A0EBC101C1F134
:101750000702FF211141654A02EBC612125D1143D7
:10176000624A02EBC6121155701EC6B22F4606E041
:10177000FF205E4901EBC7110855781CC7B2B7427C
:10178000F6DD00BF06E71FB5069C9DF800009DF83A
:101790000810884203DD02A96846FFF779FE9DF82C
:1017A00004009DF80C10884203DD03A901A8FFF78F
:1017B0006FFE9DF80C003F2803DC9DF808007F2891
:1017C00000DD1FBD23469DF808209DF804109DF8FC
:1017D0000000FFF768FE23469DF808209DF80C10D6
:1017E0009DF80000FFF75FFE23469DF80C209DF852
:1017F00004109DF80000FFF7B9FE23469DF80C2069
:101800009DF804109DF80800FFF7B0FE00BFD8E770
:101810003FB5079D9DF800009DF80810884203DD44
:1018200002A96846FFF734FE9DF804009DF80C10ED
:10183000884203DD03A901A8FFF72AFE9DF80400F2
:101840003F2803DC9DF800007F2800DD3FBD9DF8A8
:10185000004009E02B469DF80C209DF8041020461E
:10186000FFF784FE601CC4B29DF808008442F1DDDD
:1018700000BFEBE7F0B5034600247F2B01D83F29DA
:1018800000D9F0BD002003E00C2800D90BE0801C3B
:101890001578174E365CB542F6D15678144F451C74
:1018A0007D5DAE42F0D100BF0C2805D200EB4005B3
:1018B000104E06EB850400E0E3E7084610E02578CB
:1018C0000D4E06EB001606F81350651C2C462E78BC
:1018D000094D05EB00175D006D1C7E55641C401C16
:1018E00001F10B05A842EAD900BFCAE7160C002097
:1018F0005800002064000020160800207047F0B552
:1019000003460C4600217F2B01D83F2C00D9F0BDA7
:101910001578A5F12000602805D200EB4005FE4EA9
:1019200006EB850100E0F2E7FC4D2D78012D0CD18E
:10193000002008E00E78FA4FC51C07EB051505F8E6
:101940001360491C401C0C28F4D3F44D2D786DB95C
:10195000002009E00E78F24FC51C07EB05175D006B
:101960006D1C7E55491C401C0C28F3D300BFCEE7EC
:101970002DE9F04106460F4614463546B8460CB9E7
:10198000BDE8F08128E07F2D00D9F9E7B8F13F0FDD
:1019900000D9F5E7207810F0800F0AD022464146A2
:1019A0002846FFF767FF0020DC490870A41C6D1C67
:1019B00012E0DA480078012804D16D1E0020D749D2
:1019C000087002E00120D5490870224641462846A9
:1019D000FFF795FF641C6D1C20780028D3D100BF51
:1019E000CEE7F8B5034615460C46CF1701EB5777FF
:1019F000C7F3C7027F2900DDF8BD002062E02E5C3E
:101A000000240094FF248DF803400C46CF1701EB0F
:101A10005777FF10A1EBC70C009F07FA0CF7009750
:101A20001418C04F07EBC414E45C9DF80370BC436A
:101A30001718DFF8F0C20CEBC717FC54541C082C25
:101A40000DDA1418641C674607EBC414E45C9DF8B7
:101A50000270BC4317187F1C0CEBC717FC54002402
:101A600000948DF803600C46CF1701EB5777FF10F9
:101A7000A1EBC70C009F07FA0CF700971418A94FA9
:101A800007EBC414E45C9DF803703C431718DFF8BF
:101A900094C20CEBC717FC54541C072C00DDABE7B9
:101AA0001418641C9F4F07EBC414E45C9DF802708B
:101AB0003C4317187F1CDFF86CC20CEBC717FC54B3
:101AC000441CE0B204289ADB00BF95E72DE9F04101
:101AD00006460F4614464FF000087F2E01D83F2FD0
:101AE00001D9BDE8F081052C02DD002C00DCF8E70F
:101AF000601E8D4901EB8018002509E0F9B27219CA
:101B0000D0B24246FFF76DFF08F10408681CC5B269
:101B1000102DF3DB00BFE4E72DE9F04105460E464A
:101B200017464FF000087F2D01D83F2E01D9BDE8A0
:101B3000F081012F00DDFAE77C4901EBC718002492
:101B400009E0F1B22A19D0B24246FFF74AFF08F184
:101B50000408601CC4B2202CF3DB00BFE7E72DE9CA
:101B6000F84104461F46002600250B464FEAE17C5B
:101B700001EB5C7CCCF3C7001678557805F00F05B7
:101B800000230093FF238DF800300F238DF80130E0
:101B90000B464FEAE17C01EB5C7C4FEAEC0CA1EBDD
:101BA000CC08DDF800C00CFA08FCCDF800C05D4B95
:101BB00003EBC0131B5D9DF800C023EA0C03DFF8A4
:101BC00064C10CEBC01C0CF80430DFF858C1431C96
:101BD0000CEBC3131B5D9DF801C023EA0C03DFF877
:101BE000448100F1010C08EBCC1C0CF80430831C80
:101BF000082B0DDAC4460CEBC3131B5D9DF802C025
:101C000023EA0C0300F1020C08EBCC1C0CF80430A6
:101C1000002300938DF800608DF801500B464FEAC9
:101C2000E17C01EB5C7C4FEAEC0CA1EBCC08DDF82D
:101C300000C00CFA08FCCDF800C03A4B03EBC0130F
:101C40001B5D9DF800C043EA0C03DFF8D8C00CEB25
:101C5000C01C0CF80430DFF8CCC0431C0CEBC313E1
:101C60001B5D9DF801C043EA0C03DFF8B88000F16A
:101C7000010C08EBCC1C0CF80430831C082B0DDA8B
:101C8000C4460CEBC3131B5D9DF802C043EA0C0372
:101C900000F1020C08EBCC1C0CF80430BDE8F88114
:101CA00010B54FF480611F4801F0CCFC10BD2DE948
:101CB000F05F4FF0000B0026B246B1463FE04FF018
:101CC000000828E009EB49008006070E16E01248DC
:101CD00010F80A00124901EB071101F818000E492B
:101CE0000AF10C00095C0E4800EB07124FEA4800AD
:101CF000401C11540AF1010A781CC7B209EB4900D3
:101D00000B2101EB8000B842E1DA0AF10C0A08F17C
:101D1000010000F0FF080BE0803E00088801002071
:101D200016080020160C002000430008803C000824
:101D3000B8F1070FC6DD09F1010000F0FF09B9F1A4
:101D4000040FBCDD002557E01F2D2BDD082634468F
:101D500023E03620FEF752FB05F16001C8B2FEF722
:101D60004DFB04F18001C8B2FEF748FB3020FEF7BE
:101D700045FB6C4901EB0512A11B12F81100FEF79F
:101D80001FFB684901EB0512A11B012303EB410175
:101D9000505CFEF715FB601CC4B206F108008442DB
:101DA000D7DB27E0344621E03620FEF727FB05F19C
:101DB0008001C8B2FEF722FB04F18001C8B2FEF731
:101DC0001DFB3020FEF71AFB564901EB051111F8F7
:101DD0001400FEF7F5FA534901EB0511012202EB5D
:101DE0004402885CFEF7ECFA601CC4B206F10800FD
:101DF0008442D9DB681CC5B2402DA5DDBDE8F09F4B
:101E00002DE9F04781468A4600270026B046002586
:101E100057E01F2D2BDD0826344623E03620FEF741
:101E2000EDFA05F16001C8B2FEF7E8FA04F18001AD
:101E3000C8B2FEF7E3FA3020FEF7E0FA394901EBC9
:101E40000512A11B12F81100FEF7BAFA354901EB91
:101E50000512A11B012303EB4101505CFEF7B0FA10
:101E6000601CC4B206F108008442D7DB27E0344688
:101E700021E03620FEF7C2FA05F18001C8B2FEF774
:101E8000BDFA04F18001C8B2FEF7B8FA3020FEF7BF
:101E9000B5FA244901EB051111F81400FEF790FA88
:101EA000204901EB0511012202EB4402885CFEF798
:101EB00087FA601CC4B206F108008442D9DB681CB2
:101EC000C5B2402DA5DDBDE8F08770B500251DE049
:101ED000002417E03420FEF791FA05F18001C8B222
:101EE000FEF78CFA04F18001C8B2FEF787FA3020C1
:101EF000FEF784FA0020FEF763FA0020FEF760FA8E
:101F0000601CC4B2102CE5DB681CC5B2402DDFDBC1
:101F100070BD10B5FFF7D9FF3220FEF7CDF910BD27
:101F2000704700001608002031490143314A116012
:101F3000704770B5002100230F22C4780CB32D4CDC
:101F4000246804F4E064C4F5E064210AC1F10403E8
:101F5000CA40447804FA03F184781440214309010B
:101F6000254C0678A155047804F01F050124AC40E7
:101F700005786D114FF0E02606EB8505C5F80041A8
:101F800009E0047804F01F050124AC401B4D0678DD
:101F9000761145F8264070BD194A0A400243154B98
:101FA0001B1F1A60704739B1124A121D1268024392
:101FB000104B1B1D1A6006E00E4A121D1268824368
:101FC0000C4B1B1D1A607047042808D14FF0E0210C
:101FD000096941F004014FF0E022116107E04FF080
:101FE000E021096921F004014FF0E02211617047FE
:101FF0000000FA050CED00E000E400E080E100E004
:1020000080FFFF1F10B50446FE48844208D101211D
:10201000C01401F089F80021E01401F085F8C4E053
:10202000B4F1804F08D10121084601F08AF800215F
:10203000012001F086F8B8E0F348844208D101217C
:10204000022001F07EF80021022001F07AF8ACE0D5
:10205000EE48844208D10121042001F072F80021E9
:10206000042001F06EF8A0E0E948844208D1012183
:10207000082001F066F80021082001F062F894E0E1
:10208000E448844208D10121102001F05AF80021CF
:10209000102001F056F888E0DF48844208D1012181
:1020A000202001F04EF80021202001F04AF87CE0C9
:1020B000DA48844208D10121401401F035F80021AA
:1020C000601401F031F870E0D548844209D1012153
:1020D000C80401F029F800214FF4002001F024F891
:1020E00063E0D048844209D10121080501F01CF8C1
:1020F00000214FF4801001F017F856E0CA488442DE
:1021000009D10121480501F00FF800214FF400101A
:1021100001F00AF849E0C548844208D10121402075
:1021200001F00FF80021402001F00BF83DE0C0481D
:10213000844208D10121802001F003F80021802091
:1021400000F0FFFF31E0BB48844208D10121801537
:1021500000F0F7FF0021A01500F0F3FF25E0B648DE
:10216000844209D10121080400F0DEFF00214FF470
:10217000803000F0D9FF18E0B048844209D1012135
:10218000480400F0D1FF00214FF4003000F0CCFFF4
:102190000BE0AB48844208D10121880400F0C4FF61
:1021A00000214FF4802000F0BFFF10BD0022028804
:1021B000944B98420ED0994B98420BD0B0F1804F7F
:1021C00008D0914B984205D0904B984202D0904B4A
:1021D000984204D14FF68F731A404B881A438D4BA7
:1021E000984207D08C4B984204D04FF6FF431A40D8
:1021F000CB881A4302808B8883850B880385814BAB
:1022000098420BD0854B984208D08B4B984205D012
:102210008A4B984202D08A4B984201D10B7A0386AE
:1022200001238382704770B5002400220023058CAF
:102230004FF6FE7635400584028C8388048B4FF67A
:102240008F752C40B51E2C400D882C43751E2A40DE
:102250000D892A434D882A436A4DA8420BD06F4D01
:10226000A84208D0744DA84205D0744DA84202D0AF
:10227000734DA84213D14FF6F7752A404D892A4372
:102280004FF6FB752A408D882A434FF6FF652B4099
:102290004FF6FF552B408D892B43CD892B438380EF
:1022A0000483CD888586028470BD70B50024002229
:1022B0000023058C4FF6EF7635400584028C838829
:1022C000048B48F6FF752C404FF6FF452C400D88D7
:1022D0004FF6FF7606EA05252C434FF6DF752A40B8
:1022E0000D8906EA05152A434D8806EA05152A4395
:1022F000444DA84202D0494DA8421DD14FF67F75EA
:102300002A404D894FF6FF7606EA05152A434FF617
:10231000BF752A408D8806EA05152A434FF6FF351A
:102320002B404FF2FF752B408D8906EA85052B4324
:10233000CD8906EA85052B4383800483CD880587F4
:10234000028470BD70B5002400220023058C4FF676
:10235000FF6635400584028C8388848B4FF68F7529
:102360002C404FF6FC752C400D882C434FF6FF5542
:102370002A400D894FF6FF7606EA05252A434D8847
:1023800006EA05252A431F4DA84202D0234DA84244
:102390001DD14FF2FF752A404D894FF6FF7606EAB0
:1023A00005252A434FF6FF352A408D8806EA052584
:1023B0002A434EF6FF752B404DF6FF752B408D8955
:1023C00006EA05152B43CD8906EA05152B438380C4
:1023D0008483CD888587028470BD70B50022002378
:1023E0000024058C4EF6FF7635400584038C8488E6
:1023F000828B48F6FF752A404FF6FF452A400D882C
:1024000020E00000002C01400004004000080040D3
:10241000000C004000100040001400400034014057
:10242000004C0140005001400054014000180040A1
:10243000001C0040002000400040014000440140DA
:10244000004801404FF6FF7606EA05252A434DF67F
:10245000FF752B400D8906EA05352B434D8806EAAA
:1024600005352B43FA4DA84202D0FA4DA84208D1B7
:102470004BF6FF752C408D894FF6FF7606EA8515E1
:102480002C4384808283CD88A0F84050038470BDA3
:10249000828B4FF2FF331A408283828B4FF6FF7399
:1024A00003EA01231A4382837047F0B50C461546B0
:1024B000002200210026078C4EF6FF7C07EA0C075D
:1024C0000784828B018C4FF6FF7707EA043640F6CB
:1024D000FF473A404FF6FF7707EA05273A434FF6A2
:1024E000FF7707EA03373A43D94FB8420ED0D94FA6
:1024F000B8420BD0B0F1804F08D0D74FB84205D0CA
:10250000D64FB84202D0D64FB84206D14DF6FF772B
:10251000394046F48057394305E047F6FF573940C4
:1025200044F48057394382830184F0BD828B4FF697
:10253000F3731A408283828B0A4382837047F0B51B
:102540000C461546002200210026078C4FF6FF6C32
:1025500007EA0C070784828B018C4FF6FF7707EAA6
:1025600004264FF60C773A404FF6FF7707EA031739
:102570002F433A43B64FB8420ED0B64FB8420BD0B5
:10258000B0F1804F08D0B44FB84205D0B34FB84235
:1025900002D0B34FB84206D14FF6FF57394046F448
:1025A0008077394305E04FF2FF57394044F4807794
:1025B000394382830184F0BD028B4FF2FF331A400E
:1025C0000283028B4FF6FF7303EA01231A4302834F
:1025D0007047F0B50C461546002200210026078CF6
:1025E0004FF6EF7C07EA0C070784028B018C4FF64D
:1025F000FF7707EA041640F6FF473A404FF6FF77A9
:1026000007EA03373A434FF6FF7707EA05273A43CD
:102610008F4FB8420ED08F4FB8420BD0B0F1804FE1
:1026200008D08D4FB84205D08C4FB84202D08C4FA5
:10263000B84206D14FF6DF77394046F010073943EC
:1026400005E04FF65F77394044F0100739430283C5
:102650000184F0BD028B4FF6F3731A400283028BA4
:102660000A4302837047F0B50C461546002200214C
:10267000068C4FF6FE773E400684028B018C4FF6A7
:102680000C7632407E1C06EA03162E433243704E0F
:10269000B0420ED06F4EB0420BD0B0F1804F08D098
:1026A0006D4EB04205D06D4EB04202D06C4EB0427D
:1026B00006D14FF6FD76314044F00106314305E086
:1026C0004FF6F576314044F0010631430283018430
:1026D000F0BD70B505460C465D4885420ED05D489C
:1026E00085420BD0B5F1804F08D05B48854205D0BC
:1026F0005A48854202D05A48854200D100E000BFC6
:10270000208850B92389A28861882846FFF7ABFF4B
:10271000E1882846FFF79EFF25E0208804280AD19B
:102720002389A28861882846FFF753FFE18828465D
:10273000FFF742FF17E0208808280AD12389A288E2
:1027400061882846FFF7FBFEE1882846FFF7EEFE8A
:1027500009E02389A28861882846FFF7A6FEE18860
:102760002846FFF795FE70BD2DE9F04105460C4661
:1027700000260127608808B9022600E00026A0880C
:10278000012801D1022700E001272088A0B9238970
:10279000A28861882846FFF766FFE1882846FFF790
:1027A00059FF23893A4631462846FFF712FFE18850
:1027B0002846FFF701FF13E02389A2886188284695
:1027C000FFF707FFE1882846FFF7F6FE23893A4620
:1027D00031462846FFF747FFE1882846FFF73AFFD2
:1027E000BDE8F0810A884B881A438B881A43CB884E
:1027F0001A430B891A434B891A438B891A43A0F851
:10280000442070474FF6FF71818000210180C18014
:102810004180017270470021018041808180C18028
:10282000018141818181C181704700210180418006
:10283000012181800021C180018170470021018038
:1028400041808180C1800181418181817047000088
:10285000002C01400034014000040040000800400A
:10286000000C004021B1028842F00102028004E025
:1028700002884FF6FE731A400280704731B1B0F8FB
:10288000442042F40042A0F8442005E0B0F844207F
:10289000C2F30E02A0F8442070471AB183890B439B
:1028A000838102E083898B438381704781827047F3
:1028B00041EA0203A0F8483070471AB183890B43FC
:1028C000838102E083898B438381704701894FF6BE
:1028D000F8721140018170470A46002101894FF6C4
:1028E0008F73194011430181704730B504460D467E
:1028F00029462046FFF7F0FF208940F0070020819D
:1029000030BD2DE9F04104460D4616461F46602DA8
:1029100006D13B46012231462046FFF75AFE05E02C
:102920003B46012231462046FFF79DFE29462046C0
:10293000FFF7D2FF208940F007002081BDE8F08139
:1029400030B50C4600210189C9B24FF6FF7505EA82
:102950000325154325432943018130BD2DE9F0416D
:1029600005460E4617469846002443463A463146E9
:102970002846FFF7E5FF2C894FF6F870044044F035
:1029800007044FF68F70044044F070042C81BDE8BA
:10299000F081F0B504460D4616461F463B463246CA
:1029A00029462046FFF7CCFF208940F48040208153
:1029B000F0BD0185828270470A46002101884FF6EA
:1029C0008F731940114301807047F0B50C461546CE
:1029D0001E460021002200230189028B038C4FF642
:1029E000F877394021434FF6FC473A4040F201174F
:1029F0003A434FF6DD773B404FF6FF7707EA06177D
:102A00002F433B43018102830384F0BD0A4600212A
:102A1000018B4FF68F7319401143018370470A46AB
:102A20000021018B48F6FF7319404FF6FF7303EA4C
:102A300002231943018370470A460021818B4FF618
:102A40008F7319401143818370470A460021818B9F
:102A500048F6FF7319404FF6FF7303EA0223194348
:102A60008183704721B1028842F08002028004E035
:102A700002884FF67F731A400280704721B1828826
:102A800042F00402828004E082884FF6FB731A4011
:102A90008280704721B1828842F00802828004E07F
:102AA00082884FF6F7731A408280704721B182887E
:102AB00042F00102828004E082884FF6FE731A40E1
:102AC000828070470A460021018B4FF6F773194048
:102AD0001143018370470A460021018B4FF2FF73B7
:102AE00019404FF6FF7303EA02231943018370472D
:102AF0000A460021818B4FF6F773194011438183F9
:102B000070470A460021818B4FF2FF7319404FF640
:102B1000FF7303EA02231943818370470A460021A9
:102B2000018B4FF6FB7319401143018370470A462E
:102B30000021018B4FF6FF3319404FF6FF7303EA74
:102B400002231943018370470A460021818B4FF607
:102B5000FB7319401143818370470A460021818B22
:102B60004FF6FF3319404FF6FF7303EA0223194370
:102B7000818370470A460021018B4FF67F7319400D
:102B80001143018370470A460021018BC1F30E01F6
:102B90004FF6FF7303EA02231943018370470A4685
:102BA0000021818B4FF67F73194011438183704759
:102BB0000A460021818BC1F30E014FF6FF7303EA31
:102BC00002231943818370470A460021018C4FF686
:102BD000FD7319401143018470470A460021018C9E
:102BE0004FF6F77319401143018470470A460021DC
:102BF000018C4FF6DF7319404FF6FF7303EA02139F
:102C00001943018470470A460021018C4FF67F73F7
:102C100019404FF6FF7303EA02131943018470470A
:102C20000A460021018C4FF6FF5319404FF6FF73FF
:102C300003EA02231943018470470A460021018CEC
:102C40004FF2FF7319404FF6FF7303EA0223194353
:102C5000018470470A460021018C4DF6FF7319402C
:102C60004FF6FF7303EA023319430184704730B50E
:102C7000002301248C40A3B2048C9C430484048C64
:102C800002FA01F5ADB22C43048430BD30B5002307
:102C900004248C40A3B2048C9C430484048C02FA68
:102CA00001F5ADB22C43048430BD70B5034600205D
:102CB00000241846183001258D40ACB21D8CA54368
:102CC0001D8409B1082909D100EB6100056825F0D0
:102CD000700505600568154305600EE00D1FC5F31E
:102CE0004E052844056825F4E045056005684FF663
:102CF000FF7606EA02263543056070BD21B10288E1
:102D000042F00202028004E002884FF6FD731A408E
:102D10000280704721B1028842F00402028004E080
:102D200002884FF6FB731A400280704721B18288F7
:102D300042F08002828004E082884FF67F731A405E
:102D40008280704702884FF6F7731A40028002882B
:102D50000A430280704782884FF68F731A40828040
:102D600082880A438280704702894FF6F8731A40BE
:102D7000028102890A430281704702894FF67F73FC
:102D80001A40028102890A43028170478184704798
:102D900081857047818670470187704781877047BA
:102DA000A0F84010704702884FF6FF431A40028097
:102DB00002880A43028070470146888E70470146A8
:102DC000088F70470146888F70470146B1F8400070
:102DD00070470146888C70470146088D704702464F
:102DE0000020138A0B4201D0012000E00020704730
:102DF000CA430282704730B50246002000230024F7
:102E0000158A05EA0103958905EA010413B10CB19D
:102E1000012000E0002030BDCA430282704700005C
:102E2000DD48006840F00100DB4908600846406862
:102E3000DA490840D849486008460068D84908403F
:102E4000D54908600846006820F4802008600846DC
:102E5000406820F4FE0048604FF41F00886070470F
:102E6000CD49096821F48031CB4A116011460968C7
:102E700021F480211160B0F5803F03D0B0F5802FA0
:102E80000ED106E0C449096841F48031C24A11609C
:102E900007E0C149096841F4A021BF4A116000E080
:102EA00000BF00BF704710B501460022002300207C
:102EB0004A11012A02D1B84C236806E0022A02D145
:102EC000B54C236A01E0B44C636A01F01F0201248F
:102ED00094401C4201D0012000E0002010BD38B514
:102EE000002000900024002500BF3120FFF7DBFF09
:102EF00005460098401C00900098B0F5A06F01D0E6
:102F0000002DF2D03120FFF7CEFF08B1012400E000
:102F10000024204638BD014600209F4A106820F05A
:102F2000F80040EAC100106070479E490860704791
:102F300002460020984B586820F47C1042EA0103B6
:102F40001843954B5860704796490866704701468C
:102F50000020914A506820F00300084350607047F9
:102F60008D48406800F00C007047014600208A4AF6
:102F7000506820F0F0000843506070470146002080
:102F8000854A506820F4E06008435060704701466D
:102F90000020814A506820F4605040EAC10050602F
:102FA000704729B17C4A527A02437B4B5A7204E043
:102FB000794A527A8243784B5A7270477A4908604C
:102FC000704701460020744A506820F4404008438E
:102FD000506070470021754A11706F4A82F82010C6
:102FE000012802D0042808D103E001216F4A1170A2
:102FF00004E005216D4A117000E000BF00BF70477A
:103000006B49086070476449096A0143624A11626A
:103010007047674944390860704730B50021002285
:10302000002400235C4D6D6805F00C0121B10429DA
:1030300005D0082923D105E05E4D056022E05D4DF5
:1030400005601FE0544D6D6805F47012524D6D68B7
:1030500005F48034022505EB92421CB9564D5543C8
:1030600005600BE04C4D6D6815F4003F03D0524DE8
:103070005543056002E04F4D5543056002E04D4D5C
:10308000056000BF00BF444D6D6805F0F0010909FF
:103090004A4D6B5C0568DD4045603F4D6D6805F449
:1030A000E061090A454D6B5C4568DD4085603A4D3D
:1030B0006D6805F46051C90A404D6B5C4568DD40A0
:1030C000C560354D6D6805F44041890B3C4D6B5C26
:1030D000C568B5FBF3F5056130BD29B12E4A5269CB
:1030E00002432D4B5A6104E02B4A526982432A4B1A
:1030F0005A61704729B1284A92690243264B9A6166
:1031000004E0254A92698243234B9A61704729B1B2
:10311000214AD2690243204BDA6104E01E4AD26997
:1031200082431D4BDA61704729B11B4AD2680243C2
:10313000194BDA6004E0184AD2688243164BDA6011
:10314000704729B1144A12690243134B1A6104E013
:10315000114A12698243104B1A6170471449403971
:10316000086070470F49C86470470B49C8717047C1
:103170000948406A40F0807007494862704701463C
:103180000020054A92680A4201D0012000E0002098
:103190007047014988727047001002400000FFF834
:1031A000FFFFF6FE00004242D800424220100240DB
:1031B0008004424200127A0000093D00890100208B
:1031C000990100200CB50020019000906B48006828
:1031D00040F480306949086000BF6848006800F426
:1031E000003000900198401C0190009818B9019897
:1031F000B0F5A06FF1D16148006810F4003F02D033
:103200000120009001E0002000900098012842D1A8
:103210005B48006840F010005949086008460068A3
:1032200020F0030008600846006840F002000860D3
:10323000524840685149486008464068486008461E
:10324000406840F4806048600846406820F47C1084
:1032500048600846406840F4E81048600846006846
:1032600040F08070086000BF4448006810F0007FA4
:10327000FAD04248406820F00300404948600846C0
:10328000406840F00200486000BF3C48406800F0E1
:103290000C000828F9D10CBD10B5FFF793FF10BD45
:1032A00010B53648006840F001003449086008460F
:1032B000406834490840314948600846006832494E
:1032C00008402E4908600846006820F48020086005
:1032D0000846406820F4FE0048604FF41F008860F4
:1032E000FFF7DAFF4FF000602849086010BD10B505
:1032F000002100200022214B5B6803F00C0121B16A
:10330000042906D0082928D107E0214B214C23604D
:1033100027E01F4B1F4C236023E0184B5B6803F42E
:103320007010164B5B6803F48032022303EB90406D
:1033300022B9194B4343174C23600DE00F4B5B68D8
:1033400013F4003F04D0144B4343124C236003E0BA
:103350000F4B43430F4C236003E00D4B0D4C236098
:1033600000BF00BF054B5B68C3F303130B4CE15C6C
:10337000084B1B68CB40074C236010BD0010024077
:10338000002002400000FFF8FFFFF6FE08ED00E01D
:1033900000127A00A001002000093D00A4010020D5
:1033A0000948804709480047FEE7FEE7FEE7FEE7D9
:1033B000FEE7FEE7FEE7FEE7FEE7FEE70448054915
:1033C000054A064B70470000A1320008ED000008D6
:1033D00078140020781A0020781600207816002033
:1033E0000FB400B58DB010A9099000910B904FF06B
:1033F000FF300A9000200C9006487844069006485A
:1034000078446A4607900F9909A800F055F90DB065
:103410005DF814FBDB020000F30200002DE9FF5F02
:103420001D464FF0FF3B91464FF000085F46D5E93F
:103430000146A96901987F1C8847296A8246884706
:103440000028F6D11AF101000CD0002E24F4C0643B
:1034500019DD600614D5BAF12B0F09D0BAF12D0F82
:103460000ED103E0584604B0BDE8F09F44F48064F8
:10347000A96901987F1C8847761E8246002E02DDCE
:10348000BAF1300F03D0B9F1000F26D032E0A969AC
:10349000761E01987F1C44F400748847002E8246F3
:1034A00005DDBAF1780F06D0BAF1580F03D0B9F1A3
:1034B000000F10D01EE0B9F1000F02D0B9F1100FCB
:1034C00018D1A969761E01987F1C24F400748847DE
:1034D0008246102002E0082000E00A20814609E030
:1034E000A96908FB0908761E01987F1C44F4007442
:1034F00088478246002E05DD4946504600F0C7F851
:103500000028EDDAE96901988847A00502D46FF038
:103510000100A8E7E00727D1600614D5600502D5B1
:10352000C8F1000000E04046296801F104022A6069
:103530000968220501D5087016E0220701D5088028
:1035400012E0086010E0286800F1040129600068BA
:10355000210502D580F8008006E0210702D5A0F8F9
:10356000008001E0C0F8008038467CE710B5431CBD
:1035700002E010F8011B71B18107FAD14FF001325E
:1035800002C88C1A8C4314EAC211F9D0C01A0A0678
:1035900003D0C01E10BDC01A10BD0A0401D0801E89
:1035A00010BD0902FCD0401E10BD032A40F230803D
:1035B00010F0030C00F0158011F8013BBCF1020F74
:1035C000624498BF11F801CB00F8013B38BF11F8F5
:1035D000013BA2F1040298BF00F801CB38BF00F80C
:1035E000013B11F0030300F09780083AC0F0088017
:1035F00051F8043B083A51F804CBA0E80810F5E76D
:10360000121D5CBF51F8043B40F8043BAFF300804F
:10361000D20724BF11F8013B11F801CB48BF11F8C4
:10362000012B24BF00F8013B00F801CB48BF00F894
:10363000012B704702F0FF0343EA032242EA0242F1
:1036400000F002B84FF000020429C0F0128010F020
:10365000030C00F09580CCF1040CBCF1020F18BFF4
:1036600000F8012BA8BF20F8022BA1EB0C0100F001
:1036700087B85FEAC17C24BF00F8012B00F8012B5A
:1036800048BF00F8012B70477047704770473A28D1
:1036900000D2303820F02002412A01D3A2F13700B5
:1036A000884201D34FF0FF30704700000268114498
:1036B0001378016018467047D1600549794451611B
:1036C00004497944116200211161114600F086B865
:1036D000EDFFFFFF05010000426842B1016811F8EB
:1036E000013B23B1521EC0E9001218467047012168
:1036F000C160881E704742685AB1C368016843B907
:1037000083688B4205D0491E521CC0E9001200207C
:1037100070474FF0FF30704710B5203AC0F00B8073
:10372000B1E81850203AA0E81850B1E81850A0E8C5
:103730001850BFF4F5AF5FEA027C24BFB1E818501F
:10374000A0E8185044BF18C918C0BDE810405FEA8F
:10375000827C24BF51F8043B40F8043B08BF70470B
:10376000D20728BF31F8023B48BF11F8012B28BF10
:1037700020F8023B48BF00F8012B70474FF00002D1
:1037800000B5134694469646203922BFA0E80C5057
:10379000A0E80C50B1F12001BFF4F7AF090728BF32
:1037A000A0E80C5048BF0CC05DF804EB890028BFAE
:1037B00040F8042B08BF704748BF20F8022B11F0D7
:1037C000804F18BF00F8012B704710B5044600F079
:1037D000E3F90068005D00F0010010BD2DE9F34F32
:1037E0004FF0000A0C4656468DB001200C9001F1B6
:1037F0000C000B9062690B980121904705002DD0B9
:10380000252D2CD0216A8847C0B162690B9801210F
:103810009047216A88470028F7D16269411E0B98BA
:10382000904700E0761CA1690D988847216A884777
:103830000028F7D1E1690D988847DBE7A1690D9869
:103840008847A842074601D1761CD3E7E1690D9865
:1038500088477F1C02D1BAF1000F6FD06AE162691C
:103860000B9800273D46394690472A2804D16269C3
:103870000B98012190470125DFF8CC8262690B98F3
:1038800001219047A0F130010A290AD24745E5DC21
:1038900007EB870100EB4107303FDFD445F010050F
:1038A000ECE7E90601D46FF000476C280AD04C28F9
:1038B00014D0682815D06A280DD074281CD07A2816
:1038C0001AD01DE062690B98012190476C2802D044
:1038D00045F0040514E045F002050DE045F0200533
:1038E0000AE062690B9801219047682802D045F0F0
:1038F000080505E045F4006562690B9801219047D1
:10390000C4E9015765283DD019DC582879D00CDC72
:10391000452837D004DC252826D041289ED131E027
:1039200046282FD0472899D12CE05B287FD06128EA
:1039300028D063287BD0642890D159E0F5E06F2827
:1039400047D008DC66281DD067281BD0692821D005
:103950006E2816D127E0702844D0732867D07528C8
:1039600046D078280DD14CE0A1690D9888472528CC
:1039700005463FF469AFE1690D9888476D1C3FF437
:103980006AAFD7E00D9923466A466FF00100AFF3A6
:103990000080C4E045F0400023464FF00002606024
:1039A000A80735D43DE0206800F1040121600068DB
:1039B000290501D506701DE7290701D5068019E7FD
:1039C000A90704D54FEAE671C0E9006112E7066075
:1039D00010E745F0400023464FF008026060A8075A
:1039E00016D41EE040F60E0125EA0100606016E0E4
:1039F00045F0400023464FF00A026060A80707D454
:103A00000FE045F040006060A80708D5234610226B
:103A10000D996FF00100AFF3008080E007E0102205
:103A200023460D996FF00100FFF7F8FC77E04FF0A7
:103A3000000963284F46C8464B46CB4602D05B2858
:103A400006D038E0E80601D40120A060012732E06A
:103A50006269D4F80CB00B98012190475E2807D119
:103A60004FF0010949466269D4F80CB00B989047B1
:103A7000216939B900210B4603AA42F82130491CBB
:103A80000829FADBD8B3216949B308F10108626952
:103A90000B98012190475D28F4D1B9F1000F09D0AE
:103AA000002003A951F82020D24341F82020401CD7
:103AB0000828F7DB03AB2069002820794FEA407023
:103AC0001ED05B462246CDF80080CDE901970D99C6
:103AD00000286FF0010020DAAFF300801FE0C1176B
:103AE00000EBD16203A9531122F01F0201EB830105
:103AF000821A0B680120904003430B60C7E719E06E
:103B00000D99224600286FF00100009702DAAFF30A
:103B1000008004E0AFF3008001E0AFF300800028F4
:103B20000ADA401C06D10C9820B14FF0FF300FB0DC
:103B3000BDE8F08F5046FAE7E90701D10AF1010A22
:103B4000064400200C9055E6CCCCCC0C754600F019
:103B500031F8AE4605006946534620F00700854619
:103B600018B020B5FFF72AFCBDE820404FF0000652
:103B70004FF000074FF000084FF0000B21F0070155
:103B8000AC46ACE8C009ACE8C009ACE8C009ACE898
:103B9000C0098D467047000010B500F00FF8001DF9
:103BA00010BD00BFB10000000446AFF30080204606
:103BB000FCF70CFB004870471814002000487047C1
:103BC000381400204FF0013C50F8042B51F8043B0E
:103BD0009A4221D1A2EB0C03934313EACC1317D1E1
:103BE00050F8042B51F8043B9A4215D1A2EB0C0378
:103BF000934313EACC130BD150F8042B51F8043B38
:103C00009A4209D1A2EB0C03934313EACC13DBD005
:103C10004FF00000704700BFD01A01BAB1FA81F12D
:103C200001F0180122FA01F0CB40C1F12001DBB212
:103C3000C0B2C01A2CFA01F3D11A914311EAC31190
:103C4000E6D1704701491820ABBEFEE7260002000E
:103C50007047000010B500290AD00878002807D066
:103C600005487844FFF7AEFF002801D0002010BDC2
:103C70000248784410BD0000FE070000F60700006F
:103C80000000000000000060002000188020000FED
:103C90008020FF038020FE0080200201802000029F
:103CA00080200004FCFFFF0FFCFFFF0F8020101896
:103CB0008020101880201010C0300830803008306C
:103CC000002000300000003040E0FF214020802133
:103CD00040200021402000214020002140200061A0
:103CE0004020006140200061E07F00614000D86119
:103CF0000000E02100008010000000000000000033
:103D000000000000000001400080012000F00018C9
:103D1000000000070000F801FCFF3F000810100041
:103D2000000860020006E202000702010022820889
:103D30000020C218F82F620848223A0848225E0480
:103D400048FEC72448FA8125482202E24822FA7F29
:103D50004822FA3F4826820248FAC304482A6E04E1
:103D60004822520CF827220CFC2762180830C200A7
:103D70000020C10100008100000080000000000060
:103D8000000000000000000040000004C000000629
:103D9000C0FFFF0740800004408000044080000016
:103DA00040800000408000004080000040C00100D2
:103DB000C0000000C0000000800100000000000002
:103DC00000000000000000000000000000000000F3
:103DD00040000004400000044000000440000004D3
:103DE000C0FFFF07C00000064000000440000004C0
:103DF000400000040000000000000000000000007F
:103E0000000000000000000040000004400000042A
:103E1000C0FFFF0740800004408000044080000095
:103E2000408000004080030040801E00C0407800B9
:103E30008061C003003F0007000E00040000000086
:103E400000000000000000004000000440000004EA
:103E5000C0FFFF0740800004408000044080000451
:103E600040800004408000044080000440E00304DF
:103E7000C0000006C0010006000280010000000032
:103E80000000000000000000000000000010101002
:103E90001010000010000000006C484800000000F6
:103EA00000000000001414287C287C2850500000DA
:103EB000001038404038487010100000002050209A
:103EC0000C7008140800000000000018202054485E
:103ED000340000000010101010000000000000006E
:103EE0000008081010101010100808000020201002
:103EF000101010101020200000107C102828000046
:103F0000000000000000101010FC10101000000055
:103F10000000000000000018103020000000000029
:103F2000007C0000000000000000000000000030E5
:103F30003000000000040408081010202040000099
:103F40000038444444444444380000000030101019
:103F5000101010107C0000000038440408102044A9
:103F60007C000000003844041804044438000000B9
:103F7000000C141424447C040C000000003C20209D
:103F80003804044438000000001C204078444444B5
:103F900038000000007C44040808081010000000ED
:103FA0000038444438444444380000000038444455
:103FB000443C040870000000000000303000003075
:103FC0003000000000000018180000183020000029
:103FD00000000C10608060100C0000000000000069
:103FE0007C007C00000000000000C02018041820A5
:103FF000C000000000001824040810003000000079
:104000003844444C54544C4044380000003010288C
:1040100028287C44EC00000000F8444478444444E0
:10402000F8000000003C444040404044380000009C
:1040300000F0484444444448F000000000FC445070
:1040400070504044FC000000007C202838282020CC
:1040500070000000003C4440404C444438000000E4
:1040600000EC44447C444444EC000000007C10100C
:10407000101010107C000000003C08080848484858
:104080003000000000EC444850704844E400000058
:1040900000702020202024247C00000000EC6C6CA8
:1040A00054544444EC00000000EC64645454544CF8
:1040B000EC0000000038444444444444380000000C
:1040C0000078242424382020700000000038444464
:1040D00044444444381C000000F8444444784844B4
:1040E000E000000000344C40380404645800000034
:1040F00000FC9010101010103800000000EC444438
:10410000444444443800000000EC4444282828106B
:104110001000000000EC44445454545428000000A3
:1041200000C4442810102844C400000000EC4428B7
:104130002810101038000000007C440810102044A3
:104140007C00000000382020202020202020380083
:10415000004020202010100808080000003808083F
:10416000080808080808380000101028440000005B
:10417000000000000000000000000000000000FC43
:1041800000100800000000000000000000000038DF
:10419000443C44443C00000000C040586444444453
:1041A000F80000000000003C44404044380000009B
:1041B000000C04344C4444443C000000000000382F
:1041C000447C40403C000000001C207C202020203B
:1041D0007C000000000000344C4444443C0438009F
:1041E00000C0405864444444EC00000000100070DB
:1041F000101010107C00000000100078080808085B
:104200000808700000C0405C48705048DC000000A6
:1042100000301010101010107C000000000000E8AA
:1042200054545454FC000000000000D8644444443A
:10423000EC00000000000038444444443800000012
:10424000000000D8644444447840E000000000349A
:104250004C4444443C040C000000006C30202020FE
:104260007C0000000000003C44380444780000005A
:104270000000207C202020201C000000000000CC3A
:104280004444444C34000000000000EC444428281E
:1042900010000000000000EC4454545428000000BA
:1042A000000000CC48303048CC000000000000EC9A
:1042B00044242818101078000000007C4810204486
:1042C0007C000000000810101010201010100800D2
:1042D000001010101010101010100000002010100E
:1042E00010100810101020000000000000245800DA
:1042F0000000000000000000002458000000000042
:1043000000000000000000000000000000010004A8
:1043100000010004000100040001000680FFFF0707
:10432000C0FFFF07000000060000000400000004BA
:104330000000000400000000000000000000000079
:104340000000000000000000001E000700198006A9
:10435000800040064000200640001006400008068D
:104360004000040640000206C000010680C10006AD
:10437000807F0007003EE001000000000000000018
:104380000000000000000000000FE001800FE003CB
:1043900080000002400000044080000440800004CF
:1043A00040800004C0C0010480610102803F03031B
:1043B000001EFE0100007800000000000000000068
:1043C000000000000000100000001C0000001200AF
:1043D000008011000060100000301008000C100870
:1043E0000002100880FFFF0FC0FFFF0FC0FFFF0F8C
:1043F0000000100800001008000010080000000075
:1044000000000000000000000000E00100F8610270
:10441000C0870004C0400004C0200004C020000485
:10442000C0200004C0200004C0600002C0C080039F
:10443000C080FF01C0007E000000000000000000FE
:104440007045000800000020B401000028010008A9
:1044500064460008B4010020C4180000840100086C
:104460001001000043000000F8FFFFFF0040404043
:104470004040404040404141414141404040404037
:1044800040404040404040404040404040050202E3
:1044900002020202020202020202020202202020A2
:1044A00020202020202020020202020202029090FE
:1044B00090909090101010101010101010101010FC
:1044C0001010101010101010020202020202888850
:1044D000888888880808080808080808080808085C
:1044E0000808080808080808020202024000000044
:1044F00000000000000000000000000000000000BC
:1045000000000000000000000000000000000000AB
:10451000000000000000000000000000000000009B
:10452000000000000000000000000000000000008B
:10453000000000000000000000000000000000007B
:10454000000000000000000000000000000000006B
:10455000000000000000000000000000000000005B
:10456000000000000000000000000000000000004B
:10457000611772045204DE03100E017C01550156CE
:1045800001FC0756017D0142012DDE071004025A8D
:10459000FF0843DE0712C8122814FF0F4812084D07
:1045A000FE0F92080217FB0C12080E205320201851
:1045B00020B4A2CEEFB9F1C0EED1C7B6AB108028BF
:1045C000902BE060A07FF0A88029E02B2029E02D2F
:1045D00004142120221222101AA3F0F550A950A190
:1045E000503A90E4A0292022202D2020C02020270E
:1045F000F0241AFC0610086420B420A7E024190255
:10460000190E1602207FF00B100812802270DFA016
:1046100001160220FFF002120A220415407FE00971
:104620001209280949404940298029800C1A091E8D
:1046300012041A0406120A12121A222218091280EF
:10464000124022204A2030019069932D0102030478
:1046500004400906070809020406087BA24AB1695A
:044660001B0000003B
:04000005080000ED02
:00000001FF
